:100000000C9462000C948A000C948A000C948A0070
:100010000C948A000C948A000C948A000C948A0038
:100020000C948A000C948A000C948A000C94150499
:100030000C948A000C948A000C948A000C948A0018
:100040000C94CB030C948A000C9499030C947303C6
:100050000C948A000C948A000C948A000C948A00F8
:100060000C948A000C948A000000000024002700F1
:100070002A0000000000250028002B0000000008D6
:10008000000201000003040700000000000000005F
:1000900000000000230026002900040404040404D6
:1000A0000404020202020202030303030303010227
:1000B00004081020408001020408102001020408F6
:1000C0001020160511241FBECFEFD8E0DEBFCDBF34
:1000D00011E0A0E0B1E0E4EFFEE002C005900D9277
:1000E000AA31B107D9F721E0AAE1B1E001C01D9220
:1000F000AB3EB207E1F710E0C2E6D0E004C02197C2
:10010000FE010E947207C136D107C9F70E9473052C
:100110000C9478070C940000CF92DF92EF92FF923C
:10012000DC01A03282E0B807D4F5A53BB10514F09C
:10013000A4EBB0E04091E90128E830E0241B31094C
:1001400047FD3395220F331F220F331F6901330FF1
:10015000EE08FF084091EA0128E532E0241B31094E
:1001600047FD3395220F331F220F331F032E000C40
:10017000440B550B2C193D094E095F09B7FF02C00E
:10018000B0E0A0E00E942D0724EB30E040E050E01A
:100190000E940307C20ED31EE41EF51ED601E09195
:1001A000E801EC3080F52091E90188E890E0821BBD
:1001B000910927FD9395880F991F880F991FA817FC
:1001C000B90784F02091EA0188E592E0821B910949
:1001D00027FD9395880F991F880F991FA817B907B6
:1001E0000CF4CD010297880F991F4FB7F8942E2F6A
:1001F00030E0F901EE0FFF1FE20FF31FED53FE4F4A
:10020000928381834FBFFF90EF90DF90CF9008954E
:10021000AF92BF92CF92DF92EF92FF920F931F9314
:10022000CF93DF936C017B018B01040F151FEB0152
:100230005E01AE18BF08C017D10759F06991D60109
:10024000ED91FC910190F081E02DC6010995892B7B
:1002500079F7C501DF91CF911F910F91FF90EF903A
:10026000DF90CF90BF90AF900895FC01538D448DE7
:10027000252F30E0842F90E0821B930B541710F051
:10028000CF96089501970895FC01918D828D98175E
:1002900061F0A28DAE0FBF2FB11D5D968C91928D36
:1002A0009F5F9F73928F90E008958FEF9FEF089567
:1002B000FC01918D828D981731F0828DE80FF11D30
:1002C000858D90E008958FEF9FEF0895FC01918D4B
:1002D000228D892F90E0805C9F4F821B91098F7344
:1002E0009927089586E291E00E94660121E0892B1A
:1002F00009F420E0822F089580E090E0892B29F016
:100300000E94720181110C9400000895FC01A48DDB
:10031000A80FB92FB11DA35ABF4F2C91848D90E027
:1003200001968F739927848FA689B7892C93A0890A
:10033000B1898C91837080648C93938D848D981394
:1003400006C00288F389E02D80818F7D8083089527
:10035000EF92FF920F931F93CF93DF93EC0181E015
:10036000888F9B8D8C8D98131AC0E889F9898081BC
:1003700085FF15C09FB7F894EE89FF896083E889EF
:10038000F98980818370806480839FBF81E090E0E1
:10039000DF91CF911F910F91FF90EF900895F62E6E
:1003A0000B8D10E00F5F1F4F0F731127E02E8C8D08
:1003B0008E110CC00FB607FCFACFE889F98980814D
:1003C00085FFF5CFCE010E948601F1CFEB8DEC0FBA
:1003D000FD2FF11DE35AFF4FF0829FB7F8940B8F6A
:1003E000EA89FB8980818062CFCFCF93DF93EC01D4
:1003F000888D8823B9F0AA89BB89E889F9898C910D
:1004000085FD03C0808186FD0DC00FB607FCF7CFC8
:100410008C9185FFF2CF808185FFEDCFCE010E94C8
:100420008601E9CFDF91CF91089590E0FC01E45877
:10043000FF4F2491FC01E255FF4F3491FC01E65639
:10044000FF4FE491EE23C9F0222339F0233001F16C
:10045000A8F4213019F1223029F1F0E0EE0FFF1F4E
:10046000EE58FF4FA591B4918FB7F894EC916111BC
:1004700026C030953E233C938FBF08952730A9F0C6
:100480002830C9F0243049F7809180008F7D03C067
:10049000809180008F7780938000DFCF84B58F7745
:1004A00084BDDBCF84B58F7DFBCF8091B0008F778B
:1004B0008093B000D2CF8091B0008F7DF9CF3E2BDA
:1004C000DACFCF93DF9390E0FC01E255FF4F249108
:1004D00086569F4FFC0184918823D1F090E0880FCD
:1004E000991FFC01E859FF4FA591B491FC01EE580A
:1004F000FF4FC591D49161110EC09FB7F8948C91B4
:10050000E22FE0958E238C932881E223E8839FBF1E
:10051000DF91CF9108958FB7F894EC91E22BEC9393
:100520008FBFF6CF3FB7F8948091200190912101C1
:10053000A0912201B091230126B5A89B05C02F3FB1
:1005400019F00196A11DB11D3FBFBA2FA92F982FF9
:100550008827BC01CD01620F711D811D911D42E0F4
:10056000660F771F881F991F4A95D1F708958F92BC
:100570009F92AF92BF92CF92DF92EF92FF924B0188
:100580005C010E9492026B017C010E9492026C1934
:100590007D098E099F09683E734081059105A8F386
:1005A00021E0821A9108A108B10888EEC80E83E004
:1005B000D81EE11CF11C81149104A104B10429F797
:1005C000FF90EF90DF90CF90BF90AF909F908F9073
:1005D0000895FC0101900020E9F73197AF01481B15
:1005E000590BBC0186E291E00C9408018F929F9216
:1005F000AF92BF920F931F93CF93DF93CDB7DEB728
:10060000A1970FB6F894DEBF0FBECDBF19A242303E
:1006100008F44AE08E010F5D1F4F842E912CB12CFF
:10062000A12CA50194010E943507E62FB901CA014A
:10063000EA30F4F4E05DD801EE938D01232B242BF6
:10064000252B79F790E080E0109719F0CD010E94FA
:10065000E902A1960FB6F894DEBF0FBECDBFDF91C1
:10066000CF911F910F91BF90AF909F908F90089561
:10067000E95CE1CFCF92DF92EF92FF92CF93DF93CD
:100680006B017C016DE286E291E00E94A801EC0121
:1006900066277727CB016C197D098E099F094AE0EF
:1006A0000E94F6028C0F9D1FDF91CF91FF90EF907B
:1006B000DF90CF900895CF93DF93BC01990F880B03
:1006C000990B97FF0CC00E943A03EC0182E191E084
:1006D0000E94E9028C0F9D1FDF91CF9108954AE09F
:1006E0000E94F602F2CF1F920F920FB60F921124C2
:1006F0002F933F934F935F936F937F938F939F932A
:10070000AF93BF93EF93FF9386E291E00E9486013F
:10071000FF91EF91BF91AF919F918F917F916F91D9
:100720005F914F913F912F910F900FBE0F901F90AF
:1007300018951F920F920FB60F9211242F938F933B
:100740009F93EF93FF93E0913601F0913701808101
:10075000E0913C01F0913D0182FD1BC090818091B0
:100760003F018F5F8F7320914001821741F0E0912C
:100770003F01F0E0EA5DFE4F958F80933F01FF91CE
:10078000EF919F918F912F910F900FBE0F901F901F
:1007900018958081F4CF1F920F920FB60F921124FB
:1007A0002F933F938F939F93AF93BF9380911C019F
:1007B00090911D01A0911E01B0911F0130911B016C
:1007C00023E0230F2D3758F50196A11DB11D20936D
:1007D0001B0180931C0190931D01A0931E01B093F7
:1007E0001F018091200190912101A0912201B091DF
:1007F00023010196A11DB11D809320019093210139
:10080000A0932201B0932301BF91AF919F918F914B
:100810003F912F910F900FBE0F901F90189526E8D3
:10082000230F0296A11DB11DD2CF1F920F920FB6BA
:100830000F9211242F933F934F935F936F937F9366
:100840008F939F93AF93BF93CF93DF93EF93FF93D8
:1008500080911A01C091E701D0E087FF24C0109277
:1008600085001092840080911A018F5F80931A0195
:1008700080911A01082E000C990B8C179D0724F407
:1008800080911A018C30C4F1809184009091850090
:10089000049680349C4908F47AC080918400909139
:1008A0008500049676C080911A01082E000C990BE1
:1008B0008C179D07C4F6E0911A018E2FEE0F990B4D
:1008C000FC01EE0FFF1FE80FF91FED53FE4F808173
:1008D00086FFC9CFE0911A018E2FEE0F990BFC0114
:1008E000EE0FFF1FE80FF91FED53FE4F808160E010
:1008F0008F730E941502B7CF20918400309185003C
:10090000E0911A018E2FEE0F990BFC01EE0FFF1FE5
:10091000E80FF91FED53FE4F81819281820F931FE3
:100920009093890080938800E0911A018E2FEE0F3A
:10093000990BFC01EE0FFF1FE80FF91FED53FE4F5F
:10094000808186FF11C0E0911A018E2FEE0F990B66
:10095000FC01EE0FFF1FE80FF91FED53FE4F8081E2
:1009600061E08F730E941502FF91EF91DF91CF91AB
:10097000BF91AF919F918F917F916F915F914F91B7
:100980003F912F910F900FBE0F901F90189580E40C
:100990009CE990938900809388008FEF80931A01DF
:1009A000E3CFCF92DF92EF92FF920F931F93E82F46
:1009B000F92F05C0015011092109310961F1908118
:1009C00096239417B9F305C0015011092109310983
:1009D00011F1908196239413F7CFC12CD12CE12CE7
:1009E000F12C0AC08FEFC81AD80AE80AF80A0C15C9
:1009F0001D052E053F0579F080818623841791F32C
:100A00006C2D7D2D8E2D9F2D1F910F91FF90EF90BE
:100A1000DF90CF90089560E070E080E090E01F915B
:100A20000F91FF90EF90DF90CF90089510922901E1
:100A30001092280188EE93E0A0E0B0E080932A01B4
:100A400090932B01A0932C01B0932D0184E091E0B1
:100A5000909327018093260185EC90E090933301D9
:100A60008093320184EC90E09093350180933401BF
:100A700080EC90E0909337018093360181EC90E018
:100A8000909339018093380182EC90E090933B0180
:100A900080933A0186EC90E090933D0180933C0175
:100AA00010923F01109240011092410110924201B8
:100AB0008091E7018C3098F491E0980F9093E701D2
:100AC0008093E80190E0FC01EE0FFF1FE80FF91F93
:100AD000ED53FE4F88EB9BE09283818308958FEF67
:100AE0008093E8010895789484B5826084BD84B5CC
:100AF000816084BD85B5826085BD85B5816085BD19
:100B000080916E00816080936E00109281008091D0
:100B10008100826080938100809181008160809358
:100B20008100809180008160809380008091B1007D
:100B300084608093B1008091B00081608093B000A8
:100B400080917A00846080937A0080917A0082603C
:100B500080937A0080917A00816080937A008091FE
:100B60007A00806880937A001092C100E09136018B
:100B7000F091370182E08083E0913201F0913301FE
:100B80001082E0913401F09135018FEC8083109256
:100B90003E01E0913A01F0913B0186E08083E091D3
:100BA0003801F0913901808180618083E0913801C2
:100BB000F0913901808188608083E0913801F09163
:100BC0003901808180688083E0913801F09139019A
:100BD00080818F7D80838091E8018C3008F051C046
:100BE00061E08BE00E9461028091E801282F30E0F3
:100BF000F901EE0FFF1FE20FF31FED53FE4F90813F
:100C0000907C9B6090831092E9011092EA012CE0A5
:100C1000622F0E946607829FB001112430E020E01D
:100C2000AB01420F531FFA01EE0FFF1FE40FF51F38
:100C3000ED53FE4F908196FD16C02F5F3F4F2C3035
:100C4000310571F781110FC01092800082E080930E
:100C500081001092850010928400B19A80916F00FB
:100C6000826080936F00E091E8018E2F90E0FC019C
:100C7000EE0FFF1FE80FF91FED53FE4F80818064D8
:100C8000808393E0892E912C22EA222E20E0322EBE
:100C90003AE3432E512C612C712C44EBA42EB12C41
:100CA00061E089E00E94610260E089E00E94150233
:100CB000C4010197F1F761E089E00E94150283E227
:100CC00090E00197F1F760E089E00E94150260E092
:100CD00088E00E946102E6EBF0E06491F10184910A
:100CE000E82FF0E0EE0FFF1FE057FF4F8591949142
:100CF00000E412E42FE030E0462F0E94D104611599
:100D000071058105910529F06F5F7F4F8F4F9F4FD0
:100D10009F70A30192010E94030769017A01F4E622
:100D2000CF16D104E104F1040CF057C06AE070E082
:100D300080E090E00E94B702C0912401D09125018B
:100D40002196D0932501C0932401C53BD1052CF5F4
:100D5000CE010E948C0065E070E080E090E00E948F
:100D6000B702CE010E945B0365E070E080E090E096
:100D70000E94B7026AE070E080E090E00E94B70253
:100D800080E090E0892B09F48BCF0E9472018823C8
:100D900009F486CF0E94000083CFB0922501A09273
:100DA0002401C0912401D09125011C161D0684F454
:100DB000CE010E948C00CE010E945B038091240131
:100DC000909125010A979093250180932401E9CF02
:100DD0001092250110922401C7CF10922501109284
:100DE000240185E191E00E94E9024AE0C701B601D1
:100DF0000E94F60282E191E00E94E90290E080E028
:100E00000E948C00B1CF052E97FB1EF400940E9427
:100E10001A0757FD07D00E94350707FC03D04EF490
:100E20000C941A0750954095309521953F4F4F4FA0
:100E30005F4F089590958095709561957F4F8F4F86
:100E40009F4F08950E945707A59F900DB49F900D46
:100E5000A49F800D911D11240895B7FF0C942207C3
:100E60000E942207821B930B0895A1E21A2EAA1B4F
:100E7000BB1BFD010DC0AA1FBB1FEE1FFF1FA2174A
:100E8000B307E407F50720F0A21BB30BE40BF50B47
:100E9000661F771F881F991F1A9469F760957095D0
:100EA000809590959B01AC01BD01CF010895A29F53
:100EB000B001B39FC001A39F700D811D1124911D2E
:100EC000B29F700D811D1124911D0895991B79E029
:100ED00004C0991F961708F0961B881F7A95C9F7CA
:100EE00080950895EE0FFF1F0590F491E02D099471
:040EF000F894FFCFA4
:100EF40000000000A80108013501F5016601440164
:0A0F040058010D0A00636D20200063
:00000001FF
