:100000000C9458000C9480000C9480000C94800098
:100010000C9480000C9480000C9480000C94800060
:100020000C9480000C9480000C9480000C94690265
:100030000C9480000C9480000C9480000C94800040
:100040000C941F020C9480000C94ED010C94C701D9
:100050000C9480000C9480000C9480000C94800020
:100060000C9480000C948000000000002500280003
:100070002B00040404040404040402020202020229
:10008000030303030303010204081020408001025C
:1000900004081020010204081020000000080002DB
:1000A0000100000304070000000000000000250319
:1000B00011241FBECFEFD8E0DEBFCDBF11E0A0E01E
:1000C000B1E0E2E6F7E002C005900D92A231B1077F
:1000D000D9F721E0A2E1B1E001C01D92A13EB20733
:1000E000E1F710E0C8E5D0E004C02197FE010E94CE
:1000F000A903C735D107C9F70E9482030C94AF0347
:100100000C940000AF92BF92CF92DF92EF92FF92D9
:100110000F931F93CF93DF936C017B018B01040F2F
:10012000151FEB015E01AE18BF08C017D10759F0CB
:100130006991D601ED91FC910190F081E02DC6010D
:100140000995892B79F7C501DF91CF911F910F9107
:10015000FF90EF90DF90CF90BF90AF900895FC019B
:10016000538D448D252F30E0842F90E0821B930B1C
:10017000541710F0CF96089501970895FC01918DC2
:10018000828D981761F0A28DAE0FBF2FB11D5D96C5
:100190008C91928D9F5F9F73928F90E008958FEF67
:1001A0009FEF0895FC01918D828D981731F0828D1B
:1001B000E80FF11D858D90E008958FEF9FEF089572
:1001C000FC01918D228D892F90E0805C9F4F821BD6
:1001D00091098F7399270895FC01A48DA80FB92F59
:1001E000B11DA35ABF4F2C91848D90E001968F735F
:1001F0009927848FA689B7892C93A089B1898C917E
:10020000837080648C93938D848D981306C00288CC
:10021000F389E02D80818F7D80830895EF92FF9296
:100220000F931F93CF93DF93EC0181E0888F9B8D19
:100230008C8D98131AC0E889F989808185FF15C0D3
:100240009FB7F894EE89FF896083E889F9898081F6
:100250008370806480839FBF81E090E0DF91CF91C5
:100260001F910F91FF90EF900895F62E0B8D10E0E7
:100270000F5F1F4F0F731127E02E8C8D8E110CC056
:100280000FB607FCFACFE889F989808185FFF5CFA1
:10029000CE010E94EC00F1CFEB8DEC0FFD2FF11D94
:1002A000E35AFF4FF0829FB7F8940B8FEA89FB89DE
:1002B00080818062CFCFCF93DF93EC01888D88233C
:1002C000B9F0AA89BB89E889F9898C9185FD03C0B9
:1002D000808186FD0DC00FB607FCF7CF8C9185FF9E
:1002E000F2CF808185FFEDCFCE010E94EC00E9CFF7
:1002F000DF91CF91089590E0FC01E656FF4F2491E5
:10030000FC01EA57FF4F3491FC01EE58FF4FE49196
:10031000EE23C9F0222339F0233001F1A8F4213073
:1003200019F1223029F1F0E0EE0FFF1FE859FF4FDD
:10033000A591B4918FB7F894EC91611126C03095D6
:100340003E233C938FBF08952730A9F02830C9F091
:10035000243049F7809180008F7D03C08091800018
:100360008F7780938000DFCF84B58F7784BDDBCF1C
:1003700084B58F7DFBCF8091B0008F778093B000E4
:10038000D2CF8091B0008F7DF9CF3E2BDACF1F9274
:100390000F920FB60F9211242F933F934F935F93B9
:1003A0006F937F938F939F93AF93BF93EF93FF933D
:1003B0008CE191E00E94EC00FF91EF91BF91AF9131
:1003C0009F918F917F916F915F914F913F912F916D
:1003D0000F900FBE0F901F9018951F920F920FB69F
:1003E0000F9211242F938F939F93EF93FF93E0919C
:1003F0002C01F0912D018081E0913201F0913301C7
:1004000082FD1BC09081809135018F5F8F73209199
:100410003601821741F0E0913501F0E0E45EFE4FD5
:10042000958F80933501FF91EF919F918F912F913F
:100430000F900FBE0F901F9018958081F4CF1F92E0
:100440000F920FB60F9211242F933F938F939F9388
:10045000AF93BF938091180190911901A0911A0157
:10046000B0911B013091170123E0230F2D3758F570
:100470000196A11DB11D209317018093180190933F
:100480001901A0931A01B0931B018091130190915F
:100490001401A0911501B09116010196A11DB11D85
:1004A0008093130190931401A0931501B09316014A
:1004B000BF91AF919F918F913F912F910F900FBE60
:1004C0000F901F90189526E8230F0296A11DB11DCD
:1004D000D2CF1F920F920FB60F9211242F933F93FA
:1004E0004F935F936F937F938F939F93AF93BF933C
:1004F000CF93DF93EF93FF9380911201C091DD01C1
:10050000D0E087FF24C01092850010928400809173
:1005100012018F5F8093120180911201082E000C4E
:10052000990B8C179D0724F4809112018C30C4F133
:100530008091840090918500049680349C4908F451
:100540007AC08091840090918500049676C0809155
:100550001201082E000C990B8C179D07C4F6E09130
:1005600012018E2FEE0F990BFC01EE0FFF1FE80F0B
:10057000F91FE754FE4F808186FFC9CFE091120139
:100580008E2FEE0F990BFC01EE0FFF1FE80FF91FE6
:10059000E754FE4F808160E08F730E947B01B7CFEC
:1005A0002091840030918500E09112018E2FEE0F92
:1005B000990BFC01EE0FFF1FE80FF91FE754FE4FE8
:1005C00081819281820F931F90938900809388008C
:1005D000E09112018E2FEE0F990BFC01EE0FFF1F21
:1005E000E80FF91FE754FE4F808186FF11C0E091AC
:1005F00012018E2FEE0F990BFC01EE0FFF1FE80F7B
:10060000F91FE754FE4F808161E08F730E947B01E8
:10061000FF91EF91DF91CF91BF91AF919F918F911A
:100620007F916F915F914F913F912F910F900FBEEE
:100630000F901F90189580E49CE990938900809317
:1006400088008FEF80931201E3CF10921F01109268
:100650001E0188EE93E0A0E0B0E08093200190932B
:100660002101A0932201B093230184E091E09093B3
:100670001D0180931C0185EC90E0909329018093EB
:10068000280184EC90E090932B0180932A0180EC68
:1006900090E090932D0180932C0181EC90E0909359
:1006A0002F0180932E0182EC90E090933101809392
:1006B000300186EC90E090933301809332011092E8
:1006C0003501109236011092370110923801809155
:1006D000DD018C3098F491E0980F9093DD018093C8
:1006E000DE0190E0FC01EE0FFF1FE80FF91FE75459
:1006F000FE4F88EB9BE09283818308958FEF809378
:10070000DE01089584B18FEF84B980918000826CFE
:1007100080938000809181008961809381008FE1C6
:100720009EE490938700809386008091860090914C
:100730008700885E934090938900809388002FEF14
:1007400081EE94E0215080409040E1F700C000002D
:10075000ECCFEE0FFF1F0590F491E02D0994F89473
:02076000FFCFC9
:10076200000000000E018200AF005B01E000BE004D
:02077200D200B3
:00000001FF
